:060000000A128A11152905
:10000800F008030EF1000B1C1228061C850A061CBA
:100018000B28861C8503861C0F280B10710E830085
:06002800F00E700E09004D
:100200008A010A140F3982073F3406345B344F34B5
:1002100066346D347D3407347F346F3477347C3406
:1002200039345E347934713400341C21392132215F
:100230000313831243211A290317831688018901A6
:100240000313831685018601061486148113151481
:1002500095148701880103138312850186018701A4
:1002600088010800031383160F178F160F120F143F
:100270000800031383128B178B150B1003138316BF
:1002800016149614080005080021870008002008AD
:06029000002188000800B7
:04400E00C430FF3F7C
:00000001FF
