:060000000A128A11152905
:10000800F008030EF1000B1C1128061C850A061CBB
:100018000B28861C8503861C0F280B100B1D252812
:10002800D9308100880A0613861325181F2822084C
:100038008700061722282308870086170130A5069F
:0C0048000B11710E8300F00E700E090009
:100200008A010A140F3982073F3406345B344F34B5
:1002100066346D347D3407347F346F3477347C3406
:1002200039345E347934713400342C215821422120
:100230004921031383121E2125211B2905080F398B
:10024000A000050E0F39A100080020080021A2001F
:1002500021080021A30008000317831688018901E3
:100260000313831685018601061486148113151461
:100270009514870188010313831285018601870184
:1002800088010800031383160F178F160F120F141F
:1002900008000313831681128111011581140114C2
:1002A0005221080003138312D93081000B1108007A
:1002B000031383128B178B150B108B160B11031363
:0802C0008316161496140800C1
:04400E00C430FF3F7C
:00000001FF
