:060000000A128A11152905
:10000800F008030EF1000B1C1128061C850A061CBB
:100018000B28861C8503861C0F280B100B1D18281F
:10002800D93081002E140B11710E8300F00E700E62
:020038000900BD
:100200008A010A140F3982073F3406345B344F34B5
:1002100066346D347D3407347F346F3477347C3406
:1002200039345E347934713400347921A721912135
:100230009821B3210313831262210508AD004E21DA
:1002400069212E1824211C290613861309108910F0
:100250000911261C2F292008870006174629A61CED
:1002600035292108870086174629261D3B292208A3
:10027000880009144629A61D4129230888008914ED
:100280004629261E4629240888000915A60D0318AC
:100290004A294C290130A6002E100800AA01AB0102
:1002A000AC0164302D02031C5829AD00AA0A512963
:1002B0000A302D02031C5F29AD00AB0A58292D0816
:1002C000AC00080005080F39A800050E0F39A90079
:1002D000080028080021A00029080021A1002C08FE
:1002E0000021A2002B080021A3002A080021A4005D
:1002F00008000317831688018901031383168501FB
:10030000860106148614811315149514870188013B
:100310008901031383128501860187018801890100
:100320000800031383160F178F160F120F140800FF
:100330000313831681128111011581140114A12167
:10034000080003138312D93081000B110800031336
:1003500083128B178B150B108B160B11031383163F
:10036000161496140800031383120130A600080027
:04400E00C430FF3F7C
:00000001FF
