:020000040000FA
:060000000A128A110E280D
:10000800FE00030EF7000408F8000A08F9000A12B7
:100018008A111C2A0A128A111128F001F101F20131
:10002800F301F40183120313AC01AD01AE01AF017A
:10003800B00183010A128A11732A83120313A200E2
:100048002208A0002008A30079283F30A00020083B
:10005800A400B3280630A0002008A400B3285B3011
:10006800A0002008A400B3284F30A0002008A40056
:10007800B3286630A0002008A400B3286D30A00083
:100088002008A400B3287D30A0002008A400B328CD
:100098000730A0002008A400B3287F30A000200863
:1000A800A400B3286F30A0002008A400B32877303C
:1000B800A0002008A400B3287C30A0002008A400D9
:1000C800B3283930A0002008A400B3285E30A0006F
:1000D8002008A400B3287930A0002008A400B32881
:1000E8007130A0002008A400B3282308A000A101B3
:1000F8002108003A03198128B3282008003A031977
:100108002928013A03192E28033A03193328013AFA
:1001180003193828073A03193D28013A03194228D8
:10012800033A03194728013A03194C280F3A0319CF
:100138005128013A03195628033A03195B28013A52
:1001480003196028073A03196528013A03196A2830
:10015800033A03196F28013A03197428B3282408AD
:10016800080083120313A601A11FBB28BC28C328BB
:10017800A009A109A00A0319A10AA601A60AA31F9A
:10018800C628C728D028A209A309A20A0319A30AC6
:100198000130A4002408A606A701A801200821040C
:1001A8000319D728D8280F29A501A50AE628013060
:1001B8000310A00DA10DFF3E031DDC280130A40093
:1001C8002408A507A11FE928EA28DB280130031025
:1001D800A70DA80DFF3E031DEB2821082302031DD0
:1001E800F72820082202031CFA28FB2802292008E5
:1001F800A2022108031CA303A30227140130031041
:10020800A10CA00CFF3E031D03290130A502031D0C
:100218000E290F29EA282608031913291429192950
:10022800A709A809A70A0319A80A2808A1002708E6
:10023800A0000800EC3083120313A0002008B100CE
:10024800831603138501831203138501FF30831678
:100258000313860087018312031387018316031390
:1002680088018312031388018316031389018312FB
:100278000313890183160317880114308900831238
:1002880003130C13831603130C170B118B160B1780
:100298008B17831203139F131F17831603131F1241
:1002A8009F129F13831203131F141F08C33930387A
:1002B8009F000F3083120313A000A00B612964294B
:1002C800831203139F14073083120313A1007C3099
:1002D800A000A00B6D29A10B6D2900008316031344
:1002E800811281110115811401148312031331083D
:1002F80081000800700883120313A9002908F4007C
:100308006430A0000030A1007408A900AA012908DF
:10031800A2002A08A3000A128A11B5200A128A111B
:10032800831203132008AB002B08F3009C30A900AC
:100338002908A00073080A128A115C220A128A117D
:10034800740783120313AA002A08F4000A30A000D5
:100358000030A1007408A900AA012908A2002A08EF
:10036800A3000A128A11B5200A128A1183120313F4
:100378002008AB002B08F200F630A9002908A000DD
:1003880072080A128A115C220A128A1174078312EF
:100398000313AA002A08B0000800062A88010130C1
:1003A800890030080A128A1121200A128A11831240
:1003B8000313A5002508AF002F0888001B2A880111
:1003C8000230890072080A128A1121200A128A1141
:1003D80083120313A5002508AE002E0888001B2AE7
:1003E80088010430890073080A128A1121200A1230
:1003F8008A1183120313A5002508AD002D08880073
:10040800AC011B2A831203132C08A500A601260899
:10041800003A0319102A1B2A2508013A0319D22980
:10042800033A0319E329013A0319F4291B2A08009E
:10043800831203130C1F212A222A482A382A1E084D
:1004480087000C13F101F10A1F08C33928389F00EF
:10045800482A1E08F5007508F0000C13F1011F0862
:10046800C33930389F00482A7108F500F60176082C
:10047800003A0319402A482A7508003A0319232A22
:10048800013A03192D2A482A0B1D4B2A4C2A532AB4
:100498000130F5007508AC070B11310881007908A7
:1004A8008A0078088400770E8300FE0E7E0E09000D
:1004B80083120313A300A201231C632A642A682A57
:1004C8002008A1002108A2070310A00D0310A30C07
:1004D8002308031D702A712A602A220808000A12BC
:1004E8008A111E210A128A110A128A117E210A1201
:1004F8008A110A128A11D1210A128A11831203134E
:0A0508009F14782A0A128A110E28A7
:04400E00D120FF3F7F
:00000001FF
