:060000000A128A11152905
:10000800F008030EF1000B1C0E28061C850A861C3E
:0E00180085030B10710E8300F00E700E0900B0
:100200008A010A140F3982073F3406345B344F34B5
:1002100066346D347D3407347F346F3477347C3406
:1002200039345E347934713400343E211D21372154
:100230004421031383124D211B29031783168801C0
:100240008901031383168501051685160517851781
:1002500086010614861481131514951487018801EC
:1002600003138312850186018701880108000313A7
:1002700083160F178F160F120F1408000313831223
:100280008B178B150B100800031383161614961486
:100290000313831206080B100800050800218700CD
:0202A000080054
:04400E00C430FF3F7C
:00000001FF
