:020000040000FA
:060000000A128A110C280F
:10000800FE00030EF0000A08F1000A128A114B2BB9
:100018000A128A110F28F701F801F90183010A125F
:100028008A11132AFF1B202883137F1883170008BF
:10003800840A0319FF0A08007F087F398A00040828
:08004800840A0319FF0A82007B
:100200000D34203449346E346734723465347334B9
:100210006534203475346E34203463346134723480
:10022000613463347434653472342034703461342E
:1002300072346134203465346C3420347034753455
:100240006534723474346F34203441343A34203499
:1002500000340D34203449346E34673472346534DC
:1002600073346534203475346E342034633461342F
:1002700072346134633474346534723420347034CD
:10028000613472346134203465346C342034703419
:1002900075346534723474346F34203442343A34F3
:1002A000203400342034313429342034443465344B
:1002B000733470346C346534673461347234203490
:1002C00063346134643465346E34613420346434AE
:1002D000653420346334613472346134633474348B
:1002E000653472346534733420340D340034203472
:1002F0004434653462346534203469346E34673490
:1003000072346534733461347234203473346F342E
:100310006C346F342034273431342734203427347C
:100320003234273420346F342034273433342734A4
:1003300020340D3400340D34203451347534653498
:10034000203461346334633469346F346E34203460
:1003500064346534733465346134203465346A340C
:100360006534633475347434613472343F3420340A
:100370000D3400342134213421342134213421340A
:10038000213421344534523452344F3452342134E0
:1003900021342134213421342134213420340D34CA
:1003A00000342034333429342034433461346D3400
:1003B0006234693461347234203450344F345234EE
:1003C0005434423420340D34203400342034323458
:1003D00029342034433461346D34623469346134F7
:1003E0007234203450344F34523454344134203435
:1003F0000D3400340D34203448346F346C3461349F
:1004000020346D3475346E3464346F3420340D34DC
:1004100000340D3420344C346934733474346F3404
:1004200020340D3400340A128A11D6220A128A119D
:100430009B30F3008130F4000A128A1111230A1252
:100440008A115230F3008130F4000A128A1111230C
:100450000A128A11E630F3008130F4000A128A1180
:1004600011230A128A11D130F3008130F4000A12EC
:100470008A1111230A128A11F701F70ACD2A831271
:1004800003138C1E442A452A3F2A0A128A11432349
:100490000A128A11F5007508F900BA2AFA30F30039
:1004A0008130F4000A128A1111230A128A11F7010D
:1004B000CD2A0030F3008130F4000A128A11112392
:1004C0000A128A11831203138C1E672A682A622A71
:1004D0000A128A1143230A128A1183120313850018
:1004E00078080A128A1137230A128A110930F30098
:1004F0008230F4000A128A1111230A128A11572A33
:100500002930F3008130F4000A128A1111230A12F3
:100510008A11831203138C1E8E2A8F2A892A0A12AB
:100520008A1143230A128A11831203138600780862
:100530000A128A1137230A128A110930F300823015
:10054000F4000A128A1111230A128A11572ABA30AA
:10055000F3008130F4000A128A1111230A128A1161
:100560007730F3008130F4000A128A1111230A1245
:100570008A11CD2A7908F500F6017608003A0319A8
:10058000C22AA72A7508313A03194E2A033A0319D9
:10059000592A013A0319802AA72A7708031DD12A6C
:1005A000D22A3F2A182A0A128A110C28831603130A
:1005B00085018312031385018316031386018312B9
:1005C000031386018316031387018717831203130E
:1005D000870183160313880183120313880183168E
:1005E00003138901831203138901831603178801FA
:1005F00089017030831603138F040F141812181515
:10060000831603178715CF308316031399009A01B9
:1006100083120313981718131816831603139816CA
:100620000800262B7408FF00730884000A128A1140
:1006300016200A128A110A128A1137230A128A1105
:100640000130F3070318F40A0030F407740883122A
:100650000313FF00730884000A128A1116200A127D
:100660008A11003A031D352B362B122B0800F2009D
:1006700083160313981C3D2B3E2B382B72088312D4
:10068000031399000800831203131A08F20072087A
:10069000F8007808080071088A00700E8300FE0ECA
:0406A0007E0E0900C1
:04400E00D420FF3F7C
:00000001FF
