:020000040000FA
:060000000A128A110C280F
:10000800FE00030EF0000A08F1000A128A116E2899
:100018000A128A110F28F501F60183010A128A11C2
:100028005028831603138501831203138501831651
:1000380003138601831203138601831603138701B2
:10004800871783120313870183160313880183120A
:10005800031388018316031389018312031389018B
:100068008316031788018901831603138C160B174F
:100078008B1718121815831603178715CF30831698
:10008800031399009A01831203139817181318166B
:1000980083160313981608000A128A1115200A12EB
:1000A8008A11831203130C1E5A285B285D286330BB
:1000B80099000630F4001330F300AD30F200F20B73
:1000C8006328F30B6328F40B63286A2855280A125F
:1000D8008A110C28831203138C1E7328742876281F
:1000E8001A08860071088A00700E8300FE0E7E0EC4
:0200F8000900FD
:04400E00D120FF3F7F
:00000001FF
