:060000000A128A1100291A
:10020000831603178801890183160313850186016C
:1002100087018801061686160617861707168716A1
:100220000717871788160817881783120313850185
:10023000860187018801061A2621861A2C21071AB1
:100240003221871A3821881A3E211B29061E2629A9
:10025000061A2829860A0800861E2C29861A2E29A5
:1002600086030800071E3229071A3429870A080066
:10027000871E3829871A3A2987030800881E3E29D5
:0C028000881A40290708060788000800BB
:04400E00C130FF3F7F
:00000001FF
