:060000000A128A11152905
:100200008A010A140F3982073F3406345B344F34B5
:1002100066346D347D3407347F346F3477347C3406
:1002200039345E3479347134003424213B21422145
:10023000031383120B19860A0B194D21051851213E
:1002400085185A2163211A29031783168801890109
:100250000313831685010514851486010616861678
:10026000061786178701880103138312850186010B
:10027000870188010800031383160F138F160F12CE
:100280000F140800031383168112811101158114C4
:100290000114031383124D210800853081000B11D6
:1002A0000800051C512905185329A00A200800211F
:1002B00087000800851C5A2985185C29A00320089E
:1002C00000218700080006082002031D6C296E210A
:1002D000081486016E214D2108100800C830A300C3
:1002E0007421A30B702908002030A200A20B7629EC
:0202F000080004
:04400E00C430FF3F7C
:00000001FF
