:060000000A128A11152905
:100200008A010A140F3982073F3406345B344F34B5
:1002100066346D347D3407347F346F3477347C3406
:1002200039345E3479347134003423213A21412148
:10023000031383120B19860A0B194C210518502140
:10024000851859211A290317831688018901031378
:100250008316850105148514860106168616061771
:1002600086178701880103138312850186018701A0
:1002700088010800031383160F138F160F120F1433
:1002800008000313831681128111011581140114D2
:10029000031383124C210800853081000B110800E4
:1002A000051C502905185229A00A200800218700A2
:1002B0000800851C592985185B29A0032008002106
:0402C00087000800AB
:04400E00C430FF3F7C
:00000001FF
