:060000000A128A11152905
:10000800F008030EF1000B1C1528861DAD0A861D8D
:100018000B28061EAE0A061E0F28861EAE03861E75
:1000280013280B100B1D2828D930810005108510C6
:100038002518222822088700051425282308870068
:1000480085140130A5060B11710E8300F00E700E99
:0200580009009D
:100200008A010A140F3982073F3406345B344F34B5
:1002100066346D347D3407347F346F3477347C3406
:1002200039345E34793471340034302162214C2108
:10023000532103138312222129211F211B292D0859
:10024000890008002E080F39A0002E0E0F39A100DA
:10025000080020080021A20021080021A3000800B6
:10026000031783168801890103138316850186010C
:100270008615061686160617861781139515151608
:100280009516870188018901031383128501860170
:100290008701880189010800031383160F178F1641
:1002A0000F120F1408000313831681128111011518
:1002B000811401145C21080003138312D9308100DA
:1002C0000B110800031383128B178B150B108B1661
:0E02D0000B11031383169615161696160800CA
:04400E00C430FF3F7C
:00000001FF
