:060000000A128A11152905
:10000800F008030EF1000B1C1528861DB30A861D87
:100018000B28061EB40A061E0F28861EB403861E69
:1000280013280B100B1D1C28D930810035140B1117
:0A003800710E8300F00E700E090037
:100200008A010A140F3982073F3406345B344F34B5
:1002100066346D347D3407347F346F3477347C3406
:1002200039345E347934713400347E21B0219A211E
:10023000A1210130AB0003138312351823215E2165
:1002400065215B211D2985012B1C2A292208870095
:1002500005145329AB1C3029230887008514532922
:100260002B1D36292408870005155329AB1D3C2971
:1002700025088700851553292B1E4229260887004B
:1002800005165329AB1E48292708870085165329D0
:100290002B1F4E292808870005175329AB1F532908
:1002A000290887008517AB0D0318572959290130F4
:1002B000AB003510080033088900080034080F39F6
:1002C000A000340E0F39A100080020080021A20070
:1002D00021080021A30034080021A40033080021D4
:1002E000A50033080021A60034080021A700340827
:1002F0000021A80033080021A90008000317831675
:100300008801890103138316850186018615061667
:1003100086160617861781139515151695168701EB
:1003200088018901031383128501860187018801F1
:1003300089010800031383160F178F160F120F146D
:100340000800031383168112811101158114011411
:10035000AA21080003138312D93081000B11080071
:10036000031383128B178B150B108B160B110313B2
:0A037000831696151616961608005F
:04400E00C430FF3F7C
:00000001FF
