:060000000A128A11152905
:10000800F008030EF1000B1C1528861DB20A861D88
:100018000B28061EB30A061E0F28861EB303861E6B
:1000280013280B100B1D1C28D930810036140B1116
:100038000C1C28280B308E0047308F00B70A371D5C
:100048002728B30AB7010C108C1C2C28B80A8C106E
:0A005800710E8300F00E700E090017
:100200008A010A140F3982073F3406345B344F34B5
:1002100066346D347D3407347F346F3477347C3406
:1002200039345E34793471340034C1211422DD2133
:10023000E421F321052226220313831287213308A8
:10024000B4002A213008A4003108A0003621361855
:100250004F211E29B001B1010A303402031C332999
:10026000B400B00A2C293408B1000800200800218D
:10027000A80024080021A90021080021AA002508BF
:100280000021AB0022080021AC0026080021AD00AF
:1002900023080021AE0027080021AF0008008501D7
:1002A000351C56292808870005147F29B51C5C29B0
:1002B0002908870085147F29351D62292A088700AF
:1002C00005157F29B51D68292B08870085157F290D
:1002D000351E6E292C08870005167F29B51E742946
:1002E0002D08870085167F29351F7A292E0887005B
:1002F00005177F29B51F7F292F0887008517B50DA2
:100300000318832985290130B50036100800013013
:100310003202031D9129091489100911881108124C
:10032000C02902303202031D9B29891409100911CA
:1003300088110812C02903303202031DA5290915AE
:100340000910891088110812C02904303202031DD7
:10035000AF2988150910891009110812C029053024
:100360003202031DB92908160910891009118811D4
:10037000C02906303202031DC0290130B20087298E
:10038000080003178316880189010313831685016A
:10039000860186150616861606178617811395158B
:1003A00015169516870188018901031383128501AB
:1003B00086018701880189010800031383160F173E
:1003C0008F160F120F140800031383168112811168
:1003D000011581140114ED21080003138312D93093
:1003E00081000B11080003138312101410139011D5
:1003F000901090161016FD210800031383120B3085
:100400008E0047308F000C10080003138312121562
:1004100092141214121792161216921503138316C1
:10042000F43092008C100800031383128B178B1585
:100430000B108B160B110B1703138316961516163C
:100440009616031383168C140C14080003138312DE
:100450000130B5000330BF000330C0000130B200EE
:02046000080092
:04400E00C430FF3F7C
:00000001FF
