:020000040000FA
:060000000A128A110E280D
:10000800FE00030EF2000408F3000A08F4000A12C6
:100018008A1184280A128A111128F80183010A1208
:100028008A11BD2803308316031385008312031336
:100038008501831603138601831203138601831631
:10004800031387018312031387018316031388019F
:100058008312031388018316031389018312031380
:10006800890103308316031788008901831203135B
:100078000C13831603130C170B178B170715FF3078
:1000880092003F308312031397051708F0390C3894
:1000980097001D08F0390C389D000F3095000F307F
:1000A8009B00CF3097059D121D128C1003309204CF
:1000B80012158C1C602861285D288C108316031388
:1000C8000711831203139F171F13831603131F129D
:1000D8009F129F13831203131F14C3309F052130EF
:1000E800F500F50B7528831203139F140D30F600E5
:1000F800FB30F500F50B7E28F60B7E2883280800D8
:10010800831203130C1F89288A28B428A4281E08E0
:10011800F0000310700C7C3E95000C13F801F80AEF
:100128001F08C33904389F00B4281E08F0000310C4
:10013800700C7C3E9B000C13F801C3309F05B4285B
:100148007808F000F1017108003A0319AC28B428C6
:100158007008003A03198B28013A03199928B42822
:1001680074088A0073088400720E8300FE0E7E0EE7
:1001780009000A128A1116200A128A11831203131F
:100188009F142130F700F70BC728C2280A128A11DA
:020198000E282F
:04400E00D120FF3F7F
:00000001FF
