:060000000A128A11152905
:10000800F008030EF1000C1C1028BD308E00F030F3
:100018008F00A00A850A0C108C1C1528860A261544
:100028008C100B1D1B28F130810026140B11710E4A
:080038008300F00E700E0900B8
:100200008A010A140F3982073F3406345B344F34B5
:1002100066346D347D3407347F346F3477347C3406
:1002200039345E3479347134003450219E21632195
:100230006A2179218B21031383122008A100282130
:100240003421261949212A181D2926183B211D2948
:10025000A201A3010A302102031C3129A100A20A34
:100260002A292108A300080023080021A800220849
:100270000021A90008008801271C422928088700BE
:10028000081445292908870088140130A70626107C
:1002900008000130AA062A088900880126110800F2
:1002A00003178316880189010313831685018601CC
:1002B0008701880189010313831285018601870163
:1002C000880189010800031383160F138F120F167C
:1002D0000F1408000313831681128111011181107C
:1002E00001107321080003138312F13081000B11F8
:1002F000080003138312101410139011901090161D
:1003000010168321080003138312BD308E00F030D5
:100310008F000C1008000313831212159210121490
:100320001217921612169215031383167A30920042
:100330009A210800031383128C1008000313831200
:100340008B178B160B110B17031383168C140C14BD
:020350000800A3
:04400E00C430FF3F7C
:00000001FF
