:020000040000FA
:060000000A128A110C280F
:10000800FE00030EF1000A08F2000A128A11B5294F
:100018000A128A110F28F801F901FA018312031351
:10002800AC01AD01AE01AF0183010A128A11472A62
:10003800F5007508F3007308F60072283F30F300E6
:100048007308F700AC280630F3007308F700AC28F3
:100058005B30F3007308F700AC284F30F3007308E7
:10006800F700AC286630F3007308F700AC286D3051
:10007800F3007308F700AC287D30F3007308F7002D
:10008800AC280730F3007308F700AC287F30F30082
:100098007308F700AC286F30F3007308F700AC283A
:1000A8007730F3007308F700AC287C30F30073084E
:1000B800F700AC283930F3007308F700AC285E303D
:1000C800F3007308F700AC287930F3007308F700E1
:1000D800AC287130F3007308F700AC287608F300F9
:1000E800F4017408003A03197A28AC287308003A16
:1000F80003192228013A03192728033A03192C283F
:10010800013A03193128073A03193628013A031925
:100118003B28033A03194028013A031945280F3AA6
:1001280003194A28013A03194F28033A0319542896
:10013800013A03195928073A03195E28013A0319A5
:100148006328033A03196828013A03196D28AC2873
:100158007708080083120313A101F41FB428B528F7
:10016800BC28F309F409F30A0319F40AA101A10A46
:10017800F61FBF28C028C928F509F609F50A03198A
:10018800F60A0130F7007708A106A201A301730857
:1001980074040319D028D1280829A001A00ADF284F
:1001A80001300310F30DF40DFF3E031DD528013077
:1001B800F7007708A007F41FE228E328D4280130C5
:1001C8000310A20DA30DFF3E031DE4287408760258
:1001D800031DF02873087502031CF328F428FB2874
:1001E8007308F5027408031CF603F60222140130A2
:1001F8000310F40CF30CFF3E031DFC280130A00291
:10020800031D07290829E328210803190C290D29AA
:100218001229A209A309A20A0319A30A2308F400B0
:100228002208F3000800831203130708A400240817
:10023800AA006430F3000030F4002A08A400A501E5
:100248002408F5002508F6000A128A11AE200A12C1
:100258008A11730883120313A6002608A9009C308C
:10026800A4002408F30029080A128A1132220A126B
:100278008A11831203132A07A5002508AA000A3049
:10028800F3000030F4002A08A400A5012408F500B2
:100298002508F6000A128A11AE200A128A1173087C
:1002A80083120313A6002608A800F630A400240829
:1002B800F30028080A128A1132220A128A118312BC
:1002C80003132A07A5002508A70008009F2988010D
:1002D8000130890027080A128A111C200A128A1183
:1002E80083120313A0002008F80078088800B429B6
:1002F80088010230890028080A128A111C200A1273
:100308008A1183120313A0002008AE002E0888006B
:10031800B42988010430890029080A128A111C208E
:100328000A128A1183120313A0002008AD002D08B9
:100338008800AC01B429831203132C08A000A10182
:100348002108003A0319A929B4292008013A0319F8
:100358006B29033A03197C29013A03198D29B42919
:1003680008000B1CB829B929E22983120313061CBB
:10037800BE29BF29C129FA01FA0A0618C429C529C4
:10038800CF297A03031DC929CA29CF29FA010130C7
:10039800F00070088707861CD229D329D529F901CE
:1003A800F90A8618D829D929E1297903031DDD29F5
:1003B800DE29E129F901013087020B100B1DE5291F
:1003C800E629EF290130F000700883120313AC0707
:1003D8000B112B08810072088A00710E8300FE0E33
:1003E8007E0E0900EC30F300730883120313AB0090
:1003F800831603138501831203138501FF308316C7
:1004080003138600831203138601831603138701DF
:1004180083120313870183160313880183120313BE
:100428008801831603138901831203138901831634
:100438000317880189018B178B158B160B100B116D
:100448008316031316149614811281110115811451
:100458000114831203132B0881000800F600F5012C
:10046800761C372A382A3C2A7308F4007408F507E2
:100478000310F30D0310F60C7608031D442A452AD1
:10048800342A750808000A128A11F6210A128A11FC
:100498000A128A1117210A128A110A128A116A216C
:0C04A8000A128A114C2A0A128A110C2830
:04400E00D120FF3F7F
:00000001FF
