:020000040000FA
:060000000A128A110C280F
:10000800FE00030EF1000A08F2000A128A114929BB
:100018000A128A110F28F801F901FA018312031351
:10002800A801A901AA01AB0183010A128A111329A7
:1000380083120313A101F41F222823282A28F30975
:10004800F409F30A0319F40AA101A10AF61F2D28DD
:100058002E283728F509F609F50A0319F60A01309A
:10006800F7007708A106A201A30173087404031915
:100078003E283F287628A001A00A4D280130031009
:10008800F30DF40DFF3E031D43280130F7007708F8
:10009800A007F41F50285128422801300310A20D50
:1000A800A30DFF3E031D522874087602031D5E2827
:1000B80073087502031C6128622869287308F50211
:1000C8007408031CF603F602221401300310F40C22
:1000D800F30CFF3E031D6A280130A002031D75289A
:1000E80076285128210803197A287B288028A20914
:1000F800A309A20A0319A30A2308F4002208F3009B
:100108000800831203130708A4002408F8006430C9
:10011800F3000030F4007808A400A5012408F500D5
:100128002508F6000A128A111C200A128A1173087F
:1001380083120313A6002608AA009C30A4002408F2
:10014800F3002A080A128A1162210A128A11780712
:1001580083120313A5002508F8000A30F3000030C5
:10016800F4007808A400A5012408F5002508F60085
:100178000A128A111C200A128A11730883120313A7
:10018800A6002608A900F630A4002408F3002908D0
:100198000A128A1162210A128A117807831203133C
:1001A800A5002508A8000800EC30F30073088312A6
:1001B8000313AC0083160313890183120313890107
:1001C800831603138701831203138701831603130E
:1001D8008501831203138501831603138601831295
:1001E80003138601831603138801831203138801FE
:1001F80083160317880189018B178B158B160B1033
:100208000B1183160313161496148112811101150C
:1002180081140114831203132C08810008000A12A8
:100228008A11D8200A128A1183120313061C1D2969
:100238001E292029FA01FA0A0618232924292E2919
:100248007A03031D282929292E29FA010130A7003C
:1002580027088707861C312932293429F901F90A28
:1002680086183729382940297903031D3C293D2957
:100278004029F901013087020A128A1185200A12E1
:100288008A1118290A128A110C280B1C4C294D298D
:100298004E290B100B1D512952295B290B11831272
:1002A80003132C0881000130F000700888077208D9
:1002B8008A00710E8300FE0E7E0E0900F600F5011D
:1002C800761C672968296C297308F4007408F507F7
:1002D8000310F30D0310F60C7608031D7429752915
:0602E800642975080800FE
:04400E00D120FF3F7F
:00000001FF
