:020000040000FA
:060000000A128A110C280F
:10000800FE00030EF1000A08F2000A128A1167299D
:100018000A128A110F28F801F901FA018312031351
:10002800B00183010A128A11E429F5007508F3006A
:100038007308F6006F283F30F3007308F700A9280B
:100048000630F3007308F700A9285B30F300730843
:10005800F700A9284F30F3007308F700A928663085
:10006800F3007308F700A9286D30F3007308F70050
:10007800A9287D30F3007308F700A9280730F3009A
:100088007308F700A9287F30F3007308F700A92840
:100098006F30F3007308F700A9287730F30073086E
:1000A800F700A9287C30F3007308F700A928393035
:1000B800F3007308F700A9285E30F3007308F7000F
:1000C800A9287930F3007308F700A9287130F300E4
:1000D8007308F700A9287608F300F4017408003AB9
:1000E80003197728A9287308003A03191F28013A29
:1000F80003192428033A03192928013A03192E2839
:10010800073A03193328013A03193828033A03191F
:100118003D28013A031942280F3A03194728013AA2
:1001280003194C28033A03195128013A0319562890
:10013800073A03195B28013A03196028033A03199F
:100148006528013A03196A28A92877080800831244
:100158000313A901F41FB128B228B928F309F40937
:10016800F30A0319F40AA901A90AF61FBC28BD2835
:10017800C628F509F609F50A0319F60A0130F70049
:100188007708A906AA01AB01730874040319CD28DE
:10019800CE280529A801A80ADC2801300310F30D90
:1001A800F40DFF3E031DD2280130F7007708A80799
:1001B800F41FDF28E028D12801300310AA0DAB0D69
:1001C800FF3E031DE12874087602031DED2873081D
:1001D8007502031CF028F128F8287308F502740842
:1001E800031CF603F6022A1401300310F40CF30C76
:1001F800FF3E031DF9280130A802031D0429052923
:10020800E0282908031909290A290F29AA09AB098D
:10021800AA0A0319AB0A2B08F4002A08F3000800FD
:10022800831203130708AC002C08A6006430F300FF
:100238000030F4002608AC00AD012C08F5002D08AC
:10024800F6000A128A11AB200A128A117308831267
:100258000313AE002E08A5009C30AC002C08F30058
:1002680025080A128A1145220A128A1183120313D9
:100278002607AD002D08A6000A30F3000030F40070
:100288002608AC00AD012C08F5002D08F6000A126E
:100298008A11AB200A128A11730883120313AE0065
:1002A8002E08A400F630AC002C08F30024080A122B
:1002B8008A1145220A128A11831203132607AD00F8
:1002C8002D08A30008000B1C6A296B2994298312A6
:1002D8000313061C702971297329FA01FA0A0618F2
:1002E8007629772981297A03031D7B297C2981298D
:1002F800FA010130F00070088707861C84298529D7
:100308008729F901F90A86188A298B2993297903FB
:10031800031D8F2990299329F901013087020B10B9
:100328000B1D97299829A1290130F0007008F807BA
:100338000B11831203132708810072088A00710EBB
:100348008300FE0E7E0E09009630F30073088312B8
:100358000313A7008316031389018312031389016A
:10036800831603138701831203138701831603136C
:100378008501831203138501FF308316031386005A
:100388008312031386018316031388018312031350
:10039800880183160317880189018B178B158B1623
:1003A8000B100B1183160313161496148112811166
:1003B8000115811401148312031327088100080012
:1003C8000A128A11A8210A128A110A128A11142102
:1003D8000A128A118312031323080A128A11192098
:1003E8000A128A1183120313AF002F08A2002408EF
:1003F8000A128A1119200A128A1183120313AF00F4
:100408002F08A10025080A128A1119200A128A1138
:1004180083120313AF002F08A0000A128A111A22B0
:100428000A128A11E9290A128A110C28312A831220
:1004380003132208880001308900442A8312031319
:100448002108880002308900442A831203132008F7
:100458008800F80104308900442A7808F300F40180
:100468007408003A0319392A442A7308013A03190F
:100478001B2A033A0319222A013A0319292A442A72
:100488000800F600F501761C4A2A4B2A4F2A730801
:10049800F4007408F5070310F30D0310F60C760842
:0C04A800031D572A582A472A750808002F
:04400E00D120FF3F7F
:00000001FF
